{
  "contractName": "Auth",
  "abi": [
    {
      "constant": true,
      "inputs": [
        {
          "internalType": "uint256",
          "name": "",
          "type": "uint256"
        }
      ],
      "name": "candidates",
      "outputs": [
        {
          "internalType": "uint256",
          "name": "id",
          "type": "uint256"
        },
        {
          "internalType": "string",
          "name": "name",
          "type": "string"
        },
        {
          "internalType": "uint256",
          "name": "voteCount",
          "type": "uint256"
        }
      ],
      "payable": false,
      "stateMutability": "view",
      "type": "function"
    },
    {
      "constant": true,
      "inputs": [],
      "name": "candidatesCount",
      "outputs": [
        {
          "internalType": "uint256",
          "name": "",
          "type": "uint256"
        }
      ],
      "payable": false,
      "stateMutability": "view",
      "type": "function"
    },
    {
      "constant": true,
      "inputs": [
        {
          "internalType": "uint256",
          "name": "",
          "type": "uint256"
        }
      ],
      "name": "proposals",
      "outputs": [
        {
          "internalType": "string",
          "name": "name",
          "type": "string"
        },
        {
          "internalType": "int256",
          "name": "voteCount",
          "type": "int256"
        }
      ],
      "payable": false,
      "stateMutability": "view",
      "type": "function"
    },
    {
      "constant": true,
      "inputs": [
        {
          "internalType": "address",
          "name": "",
          "type": "address"
        }
      ],
      "name": "voters",
      "outputs": [
        {
          "internalType": "bool",
          "name": "",
          "type": "bool"
        }
      ],
      "payable": false,
      "stateMutability": "view",
      "type": "function"
    },
    {
      "constant": false,
      "inputs": [
        {
          "internalType": "string",
          "name": "_name",
          "type": "string"
        }
      ],
      "name": "addCandidate",
      "outputs": [],
      "payable": false,
      "stateMutability": "nonpayable",
      "type": "function"
    },
    {
      "constant": false,
      "inputs": [
        {
          "internalType": "uint256",
          "name": "_candidateId",
          "type": "uint256"
        }
      ],
      "name": "vote",
      "outputs": [],
      "payable": false,
      "stateMutability": "nonpayable",
      "type": "function"
    },
    {
      "constant": true,
      "inputs": [],
      "name": "winningProposal",
      "outputs": [
        {
          "internalType": "uint256",
          "name": "winningProposals_",
          "type": "uint256"
        }
      ],
      "payable": false,
      "stateMutability": "view",
      "type": "function"
    },
    {
      "constant": true,
      "inputs": [],
      "name": "winnerName",
      "outputs": [
        {
          "internalType": "string",
          "name": "winnerName_",
          "type": "string"
        }
      ],
      "payable": false,
      "stateMutability": "view",
      "type": "function"
    }
  ],
  "bytecode": "0x608060405234801561001057600080fd5b50610886806100206000396000f3fe608060405234801561001057600080fd5b50600436106100885760003560e01c8063462e91ec1161005b578063462e91ec1461023c578063609ff1bd146102f7578063a3ec138d14610315578063e2ba53f01461037157610088565b80630121b93f1461008d578063013cf08b146100bb5780632d35a8a2146101695780633477ee2e14610187575b600080fd5b6100b9600480360360208110156100a357600080fd5b81019080803590602001909291905050506103f4565b005b6100e7600480360360208110156100d157600080fd5b810190808035906020019092919050505061043d565b6040518080602001838152602001828103825284818151815260200191508051906020019080838360005b8381101561012d578082015181840152602081019050610112565b50505050905090810190601f16801561015a5780820380516001836020036101000a031916815260200191505b50935050505060405180910390f35b610171610506565b6040518082815260200191505060405180910390f35b6101b36004803603602081101561019d57600080fd5b810190808035906020019092919050505061050c565b6040518084815260200180602001838152602001828103825284818151815260200191508051906020019080838360005b838110156101ff5780820151818401526020810190506101e4565b50505050905090810190601f16801561022c5780820380516001836020036101000a031916815260200191505b5094505050505060405180910390f35b6102f56004803603602081101561025257600080fd5b810190808035906020019064010000000081111561026f57600080fd5b82018360208201111561028157600080fd5b803590602001918460018302840111640100000000831117156102a357600080fd5b91908080601f016020809104026020016040519081016040528093929190818152602001838380828437600081840152601f19601f8201169050808301925050505050505091929192905050506105ce565b005b6102ff610650565b6040518082815260200191505060405180910390f35b6103576004803603602081101561032b57600080fd5b81019080803573ffffffffffffffffffffffffffffffffffffffff1690602001909291905050506106c7565b604051808215151515815260200191505060405180910390f35b6103796106e7565b6040518080602001828103825283818151815260200191508051906020019080838360005b838110156103b957808201518184015260208101905061039e565b50505050905090810190601f1680156103e65780820380516001836020036101000a031916815260200191505b509250505060405180910390f35b60008111801561040657506003548111155b1561043a576000818154811061041857fe5b9060005260206000209060020201600101600081548092919060010191905055505b50565b6000818154811061044a57fe5b9060005260206000209060020201600091509050806000018054600181600116156101000203166002900480601f0160208091040260200160405190810160405280929190818152602001828054600181600116156101000203166002900480156104f65780601f106104cb576101008083540402835291602001916104f6565b820191906000526020600020905b8154815290600101906020018083116104d957829003601f168201915b5050505050908060010154905082565b60035481565b6002602052806000526040600020600091509050806000015490806001018054600181600116156101000203166002900480601f0160208091040260200160405190810160405280929190818152602001828054600181600116156101000203166002900480156105be5780601f10610593576101008083540402835291602001916105be565b820191906000526020600020905b8154815290600101906020018083116105a157829003601f168201915b5050505050908060020154905083565b60036000815480929190600101919050555060006040518060400160405280838152602001600081525090806001815401808255809150509060018203906000526020600020906002020160009091929091909150600082015181600001908051906020019061063f9291906107ac565b506020820151816001015550505050565b6000806000905060008090505b6000805490508110156106c257816000828154811061067857fe5b90600052602060002090600202016001015413156106b5576000818154811061069d57fe5b90600052602060002090600202016001015491508092505b808060010191505061065d565b505090565b60016020528060005260406000206000915054906101000a900460ff1681565b606060006106f3610650565b815481106106fd57fe5b90600052602060002090600202016000018054600181600116156101000203166002900480601f0160208091040260200160405190810160405280929190818152602001828054600181600116156101000203166002900480156107a25780601f10610777576101008083540402835291602001916107a2565b820191906000526020600020905b81548152906001019060200180831161078557829003601f168201915b5050505050905090565b828054600181600116156101000203166002900490600052602060002090601f016020900481019282601f106107ed57805160ff191683800117855561081b565b8280016001018555821561081b579182015b8281111561081a5782518255916020019190600101906107ff565b5b509050610828919061082c565b5090565b61084e91905b8082111561084a576000816000905550600101610832565b5090565b9056fea265627a7a72315820172ac77d757d8e79e675363e31bcacda271b943b8d037aa73b418aaea5f8237264736f6c63430005100032",
  "source": "pragma solidity 0.5.16;\n\ncontract Auth {\n    struct Candidate {\n        uint256 id;\n        string name;\n        uint256 voteCount;\n    }\n    struct Proposal {\n        string name;\n        int256 voteCount;\n    }\n    Proposal[] public proposals;\n\n    mapping(address => bool) public voters;\n    mapping(uint256 => Candidate) public candidates;\n    uint256 public candidatesCount;\n\n    function addCandidate(string memory _name) public {\n        candidatesCount++;\n        proposals.push(Proposal({name: _name, voteCount: 0}));\n    }\n\n    function vote(uint256 _candidateId) external {\n        if (_candidateId > 0 && _candidateId <= candidatesCount) {\n            proposals[_candidateId].voteCount++;\n        }\n    }\n\n    function winningProposal() public view returns (uint256 winningProposals_) {\n        int winningVoteCount = 0;\n        for (uint256 p = 0; p < proposals.length; p++) {\n            if (proposals[p].voteCount > winningVoteCount) {\n                winningVoteCount = proposals[p].voteCount;\n                winningProposals_ = p;\n            }\n        }\n    }\n\n    function winnerName() external view returns (string memory winnerName_) {\n        winnerName_ = proposals[winningProposal()].name;\n    }\n}\n",
  "sourcePath": "/home/mohit/Desktop/IRADA/ematdan/contracts/Auth.sol",
  "compiler": {
    "name": "solc",
    "version": "0.5.16+commit.9c3226ce.Emscripten.clang"
  },
  "schemaVersion": "3.4.4",
  "updatedAt": "2022-02-05T02:02:45.391Z",
  "networkType": "ethereum",
  "devdoc": {
    "methods": {}
  },
  "userdoc": {
    "methods": {}
  }
}