{
  "contractName": "Auth",
  "abi": [
    {
      "inputs": [],
      "payable": false,
      "stateMutability": "nonpayable",
      "type": "constructor"
    },
    {
      "constant": true,
      "inputs": [],
      "name": "getVotes",
      "outputs": [
        {
          "internalType": "int256",
          "name": "",
          "type": "int256"
        }
      ],
      "payable": false,
      "stateMutability": "view",
      "type": "function"
    },
    {
      "constant": true,
      "inputs": [],
      "name": "getParty",
      "outputs": [
        {
          "internalType": "string",
          "name": "",
          "type": "string"
        }
      ],
      "payable": false,
      "stateMutability": "view",
      "type": "function"
    },
    {
      "constant": false,
      "inputs": [
        {
          "internalType": "bool",
          "name": "hasAuth",
          "type": "bool"
        },
        {
          "internalType": "string",
          "name": "partyName",
          "type": "string"
        }
      ],
      "name": "vote",
      "outputs": [],
      "payable": false,
      "stateMutability": "nonpayable",
      "type": "function"
    }
  ],
  "bytecode": "0x608060405234801561001057600080fd5b5060008081905550610368806100276000396000f3fe608060405234801561001057600080fd5b50600436106100415760003560e01c80630dc9601514610046578063b4caa93314610064578063efcee869146100e7575b600080fd5b61004e6101ae565b6040518082815260200191505060405180910390f35b61006c6101b7565b6040518080602001828103825283818151815260200191508051906020019080838360005b838110156100ac578082015181840152602081019050610091565b50505050905090810190601f1680156100d95780820380516001836020036101000a031916815260200191505b509250505060405180910390f35b6101ac600480360360408110156100fd57600080fd5b810190808035151590602001909291908035906020019064010000000081111561012657600080fd5b82018360208201111561013857600080fd5b8035906020019184600183028401116401000000008311171561015a57600080fd5b91908080601f016020809104026020016040519081016040528093929190818152602001838380828437600081840152601f19601f820116905080830192505050505050509192919290505050610259565b005b60008054905090565b606060018054600181600116156101000203166002900480601f01602080910402602001604051908101604052809291908181526020018280546001816001161561010002031660029004801561024f5780601f106102245761010080835404028352916020019161024f565b820191906000526020600020905b81548152906001019060200180831161023257829003601f168201915b5050505050905090565b60011515821515141561028a57600160005401600081905550806001908051906020019061028892919061028e565b505b5050565b828054600181600116156101000203166002900490600052602060002090601f016020900481019282601f106102cf57805160ff19168380011785556102fd565b828001600101855582156102fd579182015b828111156102fc5782518255916020019190600101906102e1565b5b50905061030a919061030e565b5090565b61033091905b8082111561032c576000816000905550600101610314565b5090565b9056fea265627a7a723158206ae13989d5de963688fead0db1fee031a9c43c8ce261012dea86186143c5544964736f6c63430005100032",
  "source": "pragma solidity 0.5.16;\n\ncontract Auth{\n   int votes;\n   string party;\n\n    constructor() public {\n        votes = 0;\n    }\n\n    function getVotes() view public returns(int){\n        return votes;\n    }\n    function getParty() view public returns(string memory){\n        return party;\n    }\n\n    function vote(bool hasAuth, string memory partyName ) public {\n        if(hasAuth == true){      \n            votes = votes + 1;\n            party = partyName;\n        }\n    }\n}",
  "sourcePath": "/home/mohit/Desktop/IRADA/ematdan/contracts/Auth.sol",
  "compiler": {
    "name": "solc",
    "version": "0.5.16+commit.9c3226ce.Emscripten.clang"
  },
  "schemaVersion": "3.4.4",
  "updatedAt": "2022-01-31T01:58:45.151Z",
  "networkType": "ethereum",
  "devdoc": {
    "methods": {}
  },
  "userdoc": {
    "methods": {}
  }
}